:060000000A128A1110280B
:10000800FE00030EFA000408FB000A08FC007F0843
:10001800FD000A128A113C290A128A1113280A12B1
:100028008A1146220A128A11BC000A128A11472232
:100038000A128A11BD0083132030840032300A125C
:100048008A11262283010A128A110429FF1B3428E7
:1000580083137F1883170008840A0319FF0A08000E
:1000680000308A000408840A8207003449346E3458
:10007800763461346C3469346434203464347534CF
:100088007434793420346334793463346C346534AB
:100098000D340A34003449346E34763461346C34A7
:1000A80069346434203463346F346D346D346134AE
:1000B8006E3464340D340A34003453347934733470
:1000C800743465346D3420346934733420347234B4
:1000D80065346134643479340D340A34003452346C
:1000E80065346334653469347634653464343A3459
:1000F8002034253463340D340A340034F700713069
:10010800F5000130F007FF30700784000A128A11E9
:1001180034200A128A11F60076080319C5282530FA
:1001280076060319AA28A028750884000008F60096
:100138000230FF007F08F5077708840076088313EC
:1001480080000130FF007F08F70785280130F0079D
:10015800FF30700784000A128A1134200A128A11AB
:10016800F600F300F4017408003A0319BC28A0282B
:100178007308003A0319C528633A03199828A02878
:10018800852877088400831380010800F700303041
:100198007706031DD6280030F300F4000A128A11EE
:1001A8009F21080032307706031DDF2801308806BA
:1001B80002308806080034307706031DF8286430BA
:1001C800BC070318BD0A0030BD07F0286430BC0224
:1001D8000030031CBD03BD023D08F4003C08F300D9
:1001E8000A128A119F210800363077060319EA2877
:1001F8001630F1008030F2000A128A11F02108004E
:100208008316081088100A128A1141220A128A11CC
:100218000A128A112E220A128A110A128A1111222E
:100228000A128A11023083120313BB000430BA0089
:10023800B930B900B90B1E29BA0B1E29BB0B1E29F0
:100248002529283083120313B3008030B4000A1222
:100258008A11CF210A128A11081488103D08B600A5
:100268003C08B5000A128A116F210A128A113B292B
:10027800831203138C1E6429981C4429181218161B
:100288001A08A0003A30F0002008F800F9017808B0
:10029800F1007908F20021300A128A1182200A122C
:1002A8008A112130F1000030F2000A128A11F0217F
:1002B8000A128A1120080A128A11CA200A128A11FF
:1002C8007D08FF007C088A007B0884007A0E830082
:1002D800FE0E7E0E090001303602F5300319350294
:1002E8000318972935080139B700B70E17083706DC
:1002F800EF393706970035080239B700B70EB70D42
:1003080017083706DF39370697003608B80035086A
:10031800B7000310B80CB70C0310B80CB70C3708AB
:100328009500121508000130B3008030B4000A129D
:100338008A11CF21080001307402F53003197302C5
:100348000318C72973080139F500F50E1708750653
:10035800EF397506970073080239F500F50EF50DAB
:1003680017087506DF39750697007408F6007308D4
:10037800F5000310F60CF50C0310F60CF50C7508D7
:100388009500121508000130F1008030F2000A12C1
:100398008A11F02108003408FF00330884000A128B
:1003A8008A112A200A128A11003A0319080034080F
:1003B800FF00330884000A128A112A200A128A11BF
:1003C8000A128A1135220A128A110130B30703185A
:1003D800B40A0030B407CF297208FF0071088400FE
:1003E8000A128A112A200A128A11003A03190800EF
:1003F8007208FF00710884000A128A112A200A1262
:100408008A110A128A113B220A128A110130F10755
:100418000318F20A0030F207F02983160717871726
:1004280067309900181518128312981783168C16BE
:100438000B178B1798168312181683161813831226
:100448001813080064008001840A040603190034A4
:100458000406272A7C308316920083129214121401
:100468000800B2000C1E362A320899000800F00075
:100478000C1E3C2A70089900080007118312971572
:0804880017150800C834003408
:08400000FF3FFF3FFF3FFF3FC0
:02400E00FA3F77
:00000001FF
